:020000002100DD
:03000B00020139B6
:080003000201387F19DFFE2223
:10010000758901758CEE758A0675A887D28CD288A0
:10011000780079077A017B0A7C017D00C2B0C2B702
:10012000C2A1E975F00A8485F0801106D2A1C2A0AF
:10013000F5801106D2A080E832B2A7758CEE758AE0
:1001400006D28C08B8C864197800BA010CB9000549
:1001500079030A8004C2B7D2B5BA020CB900057996
:100160000A0A8004C2B6D2B7BA030FB900087907E9
:100170007A01D2B580D4C2B5D2B61BBC010CBB008B
:10018000057B070C8004C2B0D2B1BC020CBB0005D9
:100190007B030C8004C2B4D2B0BC030FBB00087B4D
:1001A0000A7C01D2B180D4C2B1D2B4327590F0755C
:1001B00090F7E59054F0B4F01F7590FBE59054F083
:1001C000B4F0307590FDE59054F0B4F0317590FEC8
:1001D000E59054F0B4F0322290030075F01084B42E
:1001E0000E0DBD00050DC28C80081DD28C8003123F
:1001F00002142290030475F010841202142290035A
:100200000875F010841202142290030C75F010840B
:1002100012021422135003A380FA740093208C025C
:070220005123229430F92262
:1003000043003D3001020330040506300708093080
:00000001FF
